{
  "contractName": "Customer",
  "abi": [
    {
      "inputs": [],
      "payable": false,
      "stateMutability": "nonpayable",
      "type": "constructor"
    },
    {
      "anonymous": false,
      "inputs": [
        {
          "indexed": false,
          "internalType": "uint256",
          "name": "idItem",
          "type": "uint256"
        }
      ],
      "name": "ItemAdd",
      "type": "event"
    },
    {
      "anonymous": false,
      "inputs": [
        {
          "indexed": false,
          "internalType": "uint256",
          "name": "idItem",
          "type": "uint256"
        }
      ],
      "name": "ItemRemove",
      "type": "event"
    },
    {
      "anonymous": false,
      "inputs": [
        {
          "indexed": false,
          "internalType": "uint256",
          "name": "idOrder",
          "type": "uint256"
        }
      ],
      "name": "OrderRaisedOrUpdated",
      "type": "event"
    },
    {
      "constant": true,
      "inputs": [],
      "name": "Items",
      "outputs": [
        {
          "internalType": "uint256",
          "name": "",
          "type": "uint256"
        }
      ],
      "payable": false,
      "stateMutability": "view",
      "type": "function"
    },
    {
      "constant": true,
      "inputs": [
        {
          "internalType": "address",
          "name": "",
          "type": "address"
        }
      ],
      "name": "customers",
      "outputs": [
        {
          "internalType": "uint256",
          "name": "cid",
          "type": "uint256"
        },
        {
          "internalType": "string",
          "name": "cName",
          "type": "string"
        },
        {
          "internalType": "uint256",
          "name": "purchaseOrderCount",
          "type": "uint256"
        },
        {
          "internalType": "uint256",
          "name": "receiveOrderCount",
          "type": "uint256"
        }
      ],
      "payable": false,
      "stateMutability": "view",
      "type": "function"
    },
    {
      "constant": true,
      "inputs": [
        {
          "internalType": "address",
          "name": "",
          "type": "address"
        }
      ],
      "name": "isCustomer",
      "outputs": [
        {
          "internalType": "bool",
          "name": "",
          "type": "bool"
        }
      ],
      "payable": false,
      "stateMutability": "view",
      "type": "function"
    },
    {
      "constant": true,
      "inputs": [
        {
          "internalType": "address",
          "name": "",
          "type": "address"
        }
      ],
      "name": "isSupplier",
      "outputs": [
        {
          "internalType": "bool",
          "name": "",
          "type": "bool"
        }
      ],
      "payable": false,
      "stateMutability": "view",
      "type": "function"
    },
    {
      "constant": true,
      "inputs": [
        {
          "internalType": "uint256",
          "name": "",
          "type": "uint256"
        }
      ],
      "name": "items",
      "outputs": [
        {
          "internalType": "uint256",
          "name": "idItem",
          "type": "uint256"
        },
        {
          "internalType": "string",
          "name": "itemName",
          "type": "string"
        },
        {
          "internalType": "bool",
          "name": "isDeleted",
          "type": "bool"
        },
        {
          "internalType": "uint256",
          "name": "price",
          "type": "uint256"
        },
        {
          "internalType": "address",
          "name": "supplier",
          "type": "address"
        }
      ],
      "payable": false,
      "stateMutability": "view",
      "type": "function"
    },
    {
      "constant": true,
      "inputs": [
        {
          "internalType": "address",
          "name": "",
          "type": "address"
        },
        {
          "internalType": "uint256",
          "name": "",
          "type": "uint256"
        }
      ],
      "name": "orders",
      "outputs": [
        {
          "internalType": "uint256",
          "name": "Oid",
          "type": "uint256"
        },
        {
          "internalType": "uint256",
          "name": "cid",
          "type": "uint256"
        },
        {
          "internalType": "string",
          "name": "itemName",
          "type": "string"
        },
        {
          "internalType": "uint256",
          "name": "quantity",
          "type": "uint256"
        },
        {
          "internalType": "bool",
          "name": "status",
          "type": "bool"
        }
      ],
      "payable": false,
      "stateMutability": "view",
      "type": "function"
    },
    {
      "constant": true,
      "inputs": [
        {
          "internalType": "address",
          "name": "",
          "type": "address"
        }
      ],
      "name": "suppliers",
      "outputs": [
        {
          "internalType": "uint256",
          "name": "sid",
          "type": "uint256"
        },
        {
          "internalType": "string",
          "name": "sName",
          "type": "string"
        }
      ],
      "payable": false,
      "stateMutability": "view",
      "type": "function"
    },
    {
      "constant": false,
      "inputs": [
        {
          "internalType": "uint256",
          "name": "cid",
          "type": "uint256"
        },
        {
          "internalType": "string",
          "name": "cName",
          "type": "string"
        }
      ],
      "name": "registerCustomer",
      "outputs": [],
      "payable": false,
      "stateMutability": "nonpayable",
      "type": "function"
    },
    {
      "constant": false,
      "inputs": [
        {
          "internalType": "uint256",
          "name": "cid",
          "type": "uint256"
        },
        {
          "internalType": "string",
          "name": "cName",
          "type": "string"
        }
      ],
      "name": "registerSupplier",
      "outputs": [],
      "payable": false,
      "stateMutability": "nonpayable",
      "type": "function"
    },
    {
      "constant": false,
      "inputs": [
        {
          "internalType": "string",
          "name": "itemName",
          "type": "string"
        },
        {
          "internalType": "uint256",
          "name": "price",
          "type": "uint256"
        }
      ],
      "name": "addItem",
      "outputs": [],
      "payable": false,
      "stateMutability": "nonpayable",
      "type": "function"
    },
    {
      "constant": false,
      "inputs": [
        {
          "internalType": "uint256",
          "name": "itemId",
          "type": "uint256"
        }
      ],
      "name": "removeItem",
      "outputs": [],
      "payable": false,
      "stateMutability": "nonpayable",
      "type": "function"
    },
    {
      "constant": false,
      "inputs": [
        {
          "internalType": "uint256",
          "name": "itemId",
          "type": "uint256"
        },
        {
          "internalType": "string",
          "name": "itemName",
          "type": "string"
        },
        {
          "internalType": "uint256",
          "name": "customerId",
          "type": "uint256"
        },
        {
          "internalType": "uint256",
          "name": "quantity",
          "type": "uint256"
        }
      ],
      "name": "purchaseItem",
      "outputs": [],
      "payable": false,
      "stateMutability": "nonpayable",
      "type": "function"
    },
    {
      "constant": false,
      "inputs": [
        {
          "internalType": "uint256",
          "name": "oid",
          "type": "uint256"
        }
      ],
      "name": "recieveItem",
      "outputs": [],
      "payable": false,
      "stateMutability": "nonpayable",
      "type": "function"
    },
    {
      "constant": true,
      "inputs": [
        {
          "internalType": "uint256",
          "name": "oid",
          "type": "uint256"
        }
      ],
      "name": "getOrderDetails",
      "outputs": [
        {
          "internalType": "string",
          "name": "",
          "type": "string"
        },
        {
          "internalType": "uint256",
          "name": "",
          "type": "uint256"
        },
        {
          "internalType": "bool",
          "name": "",
          "type": "bool"
        }
      ],
      "payable": false,
      "stateMutability": "view",
      "type": "function"
    },
    {
      "constant": true,
      "inputs": [],
      "name": "getNumberOfItemsPurchased",
      "outputs": [
        {
          "internalType": "uint256",
          "name": "",
          "type": "uint256"
        }
      ],
      "payable": false,
      "stateMutability": "view",
      "type": "function"
    },
    {
      "constant": true,
      "inputs": [],
      "name": "getNumberOfItemsReceived",
      "outputs": [
        {
          "internalType": "uint256",
          "name": "",
          "type": "uint256"
        }
      ],
      "payable": false,
      "stateMutability": "view",
      "type": "function"
    }
  ],
  "bytecode": "0x608060405234801561001057600080fd5b50336000806101000a81548173ffffffffffffffffffffffffffffffffffffffff021916908373ffffffffffffffffffffffffffffffffffffffff160217905550611f89806100606000396000f3fe608060405234801561001057600080fd5b50600436106101005760003560e01c80637132917111610097578063c03df43311610066578063c03df4331461074f578063cbfdd18a14610828578063d103b02c146108ed578063ec7dd7bb1461090b57610100565b8063713291711461052957806377c3d81b14610557578063793b8c6d14610575578063bfb231d21461065c57610100565b8063369d32f1116100d3578063369d32f114610325578063463365421461034357806362d6bbdf1461039f578063702af2c61461046457610100565b80630657de331461010557806316dc15fe1461013357806328fd5e83146101f7578063336989ae14610253575b600080fd5b6101316004803603602081101561011b57600080fd5b81019080803590602001909291905050506109c4565b005b6101756004803603602081101561014957600080fd5b81019080803573ffffffffffffffffffffffffffffffffffffffff169060200190929190505050610b83565b6040518083815260200180602001828103825283818151815260200191508051906020019080838360005b838110156101bb5780820151818401526020810190506101a0565b50505050905090810190601f1680156101e85780820380516001836020036101000a031916815260200191505b50935050505060405180910390f35b6102396004803603602081101561020d57600080fd5b81019080803573ffffffffffffffffffffffffffffffffffffffff169060200190929190505050610c3f565b604051808215151515815260200191505060405180910390f35b6102956004803603602081101561026957600080fd5b81019080803573ffffffffffffffffffffffffffffffffffffffff169060200190929190505050610c5f565b6040518085815260200180602001848152602001838152602001828103825285818151815260200191508051906020019080838360005b838110156102e75780820151818401526020810190506102cc565b50505050905090810190601f1680156103145780820380516001836020036101000a031916815260200191505b509550505050505060405180910390f35b61032d610d27565b6040518082815260200191505060405180910390f35b6103856004803603602081101561035957600080fd5b81019080803573ffffffffffffffffffffffffffffffffffffffff169060200190929190505050610d2d565b604051808215151515815260200191505060405180910390f35b610462600480360360408110156103b557600080fd5b81019080803590602001906401000000008111156103d257600080fd5b8201836020820111156103e457600080fd5b8035906020019184600183028401116401000000008311171561040657600080fd5b91908080601f016020809104026020016040519081016040528093929190818152602001838380828437600081840152601f19601f82011690508083019250505050505050919291929080359060200190929190505050610d4d565b005b6105276004803603604081101561047a57600080fd5b8101908080359060200190929190803590602001906401000000008111156104a157600080fd5b8201836020820111156104b357600080fd5b803590602001918460018302840111640100000000831117156104d557600080fd5b91908080601f016020809104026020016040519081016040528093929190818152602001838380828437600081840152601f19601f820116905080830192505050505050509192919290505050610f49565b005b6105556004803603602081101561053f57600080fd5b8101908080359060200190929190505050611023565b005b61055f611216565b6040518082815260200191505060405180910390f35b6105c16004803603604081101561058b57600080fd5b81019080803573ffffffffffffffffffffffffffffffffffffffff1690602001909291908035906020019092919050505061131f565b604051808681526020018581526020018060200184815260200183151515158152602001828103825285818151815260200191508051906020019080838360005b8381101561061d578082015181840152602081019050610602565b50505050905090810190601f16801561064a5780820380516001836020036101000a031916815260200191505b50965050505050505060405180910390f35b6106886004803603602081101561067257600080fd5b8101908080359060200190929190505050611414565b6040518086815260200180602001851515151581526020018481526020018373ffffffffffffffffffffffffffffffffffffffff1673ffffffffffffffffffffffffffffffffffffffff168152602001828103825286818151815260200191508051906020019080838360005b838110156107105780820151818401526020810190506106f5565b50505050905090810190601f16801561073d5780820380516001836020036101000a031916815260200191505b50965050505050505060405180910390f35b6108266004803603608081101561076557600080fd5b81019080803590602001909291908035906020019064010000000081111561078c57600080fd5b82018360208201111561079e57600080fd5b803590602001918460018302840111640100000000831117156107c057600080fd5b91908080601f016020809104026020016040519081016040528093929190818152602001838380828437600081840152601f19601f820116905080830192505050505050509192919290803590602001909291908035906020019092919050505061150f565b005b6108eb6004803603604081101561083e57600080fd5b81019080803590602001909291908035906020019064010000000081111561086557600080fd5b82018360208201111561087757600080fd5b8035906020019184600183028401116401000000008311171561089957600080fd5b91908080601f016020809104026020016040519081016040528093929190818152602001838380828437600081840152601f19601f820116905080830192505050505050509192919290505050611828565b005b6108f5611924565b6040518082815260200191505060405180910390f35b6109376004803603602081101561092157600080fd5b8101908080359060200190929190505050611a2d565b604051808060200184815260200183151515158152602001828103825285818151815260200191508051906020019080838360005b8381101561098757808201518184015260208101905061096c565b50505050905090810190601f1680156109b45780820380516001836020036101000a031916815260200191505b5094505050505060405180910390f35b600660003373ffffffffffffffffffffffffffffffffffffffff1673ffffffffffffffffffffffffffffffffffffffff16815260200190815260200160002060009054906101000a900460ff16610a83576040517f08c379a00000000000000000000000000000000000000000000000000000000081526004018080602001828103825260148152602001807f4e6f7420612076616c696420637573746f6d657200000000000000000000000081525060200191505060405180910390fd5b6001600360003373ffffffffffffffffffffffffffffffffffffffff1673ffffffffffffffffffffffffffffffffffffffff1681526020019081526020016000208281548110610acf57fe5b906000526020600020906005020160040160006101000a81548160ff021916908315150217905550600260003373ffffffffffffffffffffffffffffffffffffffff1673ffffffffffffffffffffffffffffffffffffffff168152602001908152602001600020600301600081548092919060010191905055507ffd4b9f33f750059f7f0fea80cc0091c7788f7b097feddbd26b1e87482cad21f3816040518082815260200191505060405180910390a150565b6004602052806000526040600020600091509050806000015490806001018054600181600116156101000203166002900480601f016020809104026020016040519081016040528092919081815260200182805460018160011615610100020316600290048015610c355780601f10610c0a57610100808354040283529160200191610c35565b820191906000526020600020905b815481529060010190602001808311610c1857829003601f168201915b5050505050905082565b60066020528060005260406000206000915054906101000a900460ff1681565b6002602052806000526040600020600091509050806000015490806001018054600181600116156101000203166002900480601f016020809104026020016040519081016040528092919081815260200182805460018160011615610100020316600290048015610d115780601f10610ce657610100808354040283529160200191610d11565b820191906000526020600020905b815481529060010190602001808311610cf457829003601f168201915b5050505050908060020154908060030154905084565b60015481565b60076020528060005260406000206000915054906101000a900460ff1681565b600760003373ffffffffffffffffffffffffffffffffffffffff1673ffffffffffffffffffffffffffffffffffffffff16815260200190815260200160002060009054906101000a900460ff16610e0c576040517f08c379a00000000000000000000000000000000000000000000000000000000081526004018080602001828103825260148152602001807f6e6f7420612076616c696420737570706c69657200000000000000000000000081525060200191505060405180910390fd5b600060016000815460010191905081905590506040518060a001604052808281526020018481526020016000151581526020018381526020013373ffffffffffffffffffffffffffffffffffffffff1681525060056000838152602001908152602001600020600082015181600001556020820151816001019080519060200190610e98929190611cba565b5060408201518160020160006101000a81548160ff0219169083151502179055506060820151816003015560808201518160040160006101000a81548173ffffffffffffffffffffffffffffffffffffffff021916908373ffffffffffffffffffffffffffffffffffffffff1602179055509050507fb24a8b1e548ac011b99726423366744a00b4f43a76c547367dc6a0a77550a2f7816040518082815260200191505060405180910390a1505050565b604051806040016040528083815260200182815250600460003373ffffffffffffffffffffffffffffffffffffffff1673ffffffffffffffffffffffffffffffffffffffff168152602001908152602001600020600082015181600001556020820151816001019080519060200190610fc3929190611cba565b509050506001600760003373ffffffffffffffffffffffffffffffffffffffff1673ffffffffffffffffffffffffffffffffffffffff16815260200190815260200160002060006101000a81548160ff0219169083151502179055505050565b600760003373ffffffffffffffffffffffffffffffffffffffff1673ffffffffffffffffffffffffffffffffffffffff16815260200190815260200160002060009054906101000a900460ff166110e2576040517f08c379a00000000000000000000000000000000000000000000000000000000081526004018080602001828103825260148152602001807f6e6f7420612076616c696420737570706c69657200000000000000000000000081525060200191505060405180910390fd5b60006005600083815260200190815260200160002090503373ffffffffffffffffffffffffffffffffffffffff168160040160009054906101000a900473ffffffffffffffffffffffffffffffffffffffff1673ffffffffffffffffffffffffffffffffffffffff16146111be576040517f08c379a000000000000000000000000000000000000000000000000000000000815260040180806020018281038252601d8152602001807f6e6f7420617574686f72697a656420746f2072656d6f7665206974656d00000081525060200191505060405180910390fd5b60018160020160006101000a81548160ff0219169083151502179055507f2ce4ce41e5fdb1d28c8329c83552fd8bc00db04f473e0440d1429807b19eb10e826040518082815260200191505060405180910390a15050565b6000600660003373ffffffffffffffffffffffffffffffffffffffff1673ffffffffffffffffffffffffffffffffffffffff16815260200190815260200160002060009054906101000a900460ff166112d7576040517f08c379a00000000000000000000000000000000000000000000000000000000081526004018080602001828103825260148152602001807f4e6f7420612076616c696420637573746f6d657200000000000000000000000081525060200191505060405180910390fd5b600260003373ffffffffffffffffffffffffffffffffffffffff1673ffffffffffffffffffffffffffffffffffffffff16815260200190815260200160002060030154905090565b6003602052816000526040600020818154811061133857fe5b906000526020600020906005020160009150915050806000015490806001015490806002018054600181600116156101000203166002900480601f0160208091040260200160405190810160405280929190818152602001828054600181600116156101000203166002900480156113f15780601f106113c6576101008083540402835291602001916113f1565b820191906000526020600020905b8154815290600101906020018083116113d457829003601f168201915b5050505050908060030154908060040160009054906101000a900460ff16905085565b6005602052806000526040600020600091509050806000015490806001018054600181600116156101000203166002900480601f0160208091040260200160405190810160405280929190818152602001828054600181600116156101000203166002900480156114c65780601f1061149b576101008083540402835291602001916114c6565b820191906000526020600020905b8154815290600101906020018083116114a957829003601f168201915b5050505050908060020160009054906101000a900460ff16908060030154908060040160009054906101000a900473ffffffffffffffffffffffffffffffffffffffff16905085565b600660003373ffffffffffffffffffffffffffffffffffffffff1673ffffffffffffffffffffffffffffffffffffffff16815260200190815260200160002060009054906101000a900460ff166115ce576040517f08c379a00000000000000000000000000000000000000000000000000000000081526004018080602001828103825260148152602001807f4e6f7420612076616c696420637573746f6d657200000000000000000000000081525060200191505060405180910390fd5b6000600360003373ffffffffffffffffffffffffffffffffffffffff1673ffffffffffffffffffffffffffffffffffffffff1681526020019081526020016000209050600260003373ffffffffffffffffffffffffffffffffffffffff1673ffffffffffffffffffffffffffffffffffffffff16815260200190815260200160002060020160008154809291906001019190505550806040518060a00160405280600260003373ffffffffffffffffffffffffffffffffffffffff1673ffffffffffffffffffffffffffffffffffffffff16815260200190815260200160002060020154815260200185815260200186815260200184815260200160001515815250908060018154018082558091505090600182039060005260206000209060050201600090919290919091506000820151816000015560208201518160010155604082015181600201908051906020019061172b929190611cba565b506060820151816003015560808201518160040160006101000a81548160ff02191690831515021790555050505080600360003373ffffffffffffffffffffffffffffffffffffffff1673ffffffffffffffffffffffffffffffffffffffff1681526020019081526020016000209080546117a7929190611d3a565b507ffd4b9f33f750059f7f0fea80cc0091c7788f7b097feddbd26b1e87482cad21f3600260003373ffffffffffffffffffffffffffffffffffffffff1673ffffffffffffffffffffffffffffffffffffffff168152602001908152602001600020600201546040518082815260200191505060405180910390a15050505050565b6040518060800160405280838152602001828152602001600081526020016000815250600260003373ffffffffffffffffffffffffffffffffffffffff1673ffffffffffffffffffffffffffffffffffffffff1681526020019081526020016000206000820151816000015560208201518160010190805190602001906118b0929190611cba565b5060408201518160020155606082015181600301559050506001600660003373ffffffffffffffffffffffffffffffffffffffff1673ffffffffffffffffffffffffffffffffffffffff16815260200190815260200160002060006101000a81548160ff0219169083151502179055505050565b6000600660003373ffffffffffffffffffffffffffffffffffffffff1673ffffffffffffffffffffffffffffffffffffffff16815260200190815260200160002060009054906101000a900460ff166119e5576040517f08c379a00000000000000000000000000000000000000000000000000000000081526004018080602001828103825260148152602001807f4e6f7420612076616c696420637573746f6d657200000000000000000000000081525060200191505060405180910390fd5b600260003373ffffffffffffffffffffffffffffffffffffffff1673ffffffffffffffffffffffffffffffffffffffff16815260200190815260200160002060020154905090565b6060600080600660003373ffffffffffffffffffffffffffffffffffffffff1673ffffffffffffffffffffffffffffffffffffffff16815260200190815260200160002060009054906101000a900460ff16611af1576040517f08c379a00000000000000000000000000000000000000000000000000000000081526004018080602001828103825260148152602001807f4e6f7420612076616c696420637573746f6d657200000000000000000000000081525060200191505060405180910390fd5b600360003373ffffffffffffffffffffffffffffffffffffffff1673ffffffffffffffffffffffffffffffffffffffff1681526020019081526020016000208481548110611b3b57fe5b9060005260206000209060050201600201600360003373ffffffffffffffffffffffffffffffffffffffff1673ffffffffffffffffffffffffffffffffffffffff1681526020019081526020016000208581548110611b9657fe5b906000526020600020906005020160030154600360003373ffffffffffffffffffffffffffffffffffffffff1673ffffffffffffffffffffffffffffffffffffffff1681526020019081526020016000208681548110611bf257fe5b906000526020600020906005020160040160009054906101000a900460ff16828054600181600116156101000203166002900480601f016020809104026020016040519081016040528092919081815260200182805460018160011615610100020316600290048015611ca65780601f10611c7b57610100808354040283529160200191611ca6565b820191906000526020600020905b815481529060010190602001808311611c8957829003601f168201915b505050505092509250925092509193909250565b828054600181600116156101000203166002900490600052602060002090601f016020900481019282601f10611cfb57805160ff1916838001178555611d29565b82800160010185558215611d29579182015b82811115611d28578251825591602001919060010190611d0d565b5b509050611d369190611e05565b5090565b828054828255906000526020600020906005028101928215611df45760005260206000209160050282015b82811115611df3578282600082015481600001556001820154816001015560028201816002019080546001816001161561010002031660029004611daa929190611e2a565b50600382015481600301556004820160009054906101000a900460ff168160040160006101000a81548160ff021916908315150217905550505091600501919060050190611d65565b5b509050611e019190611eb1565b5090565b611e2791905b80821115611e23576000816000905550600101611e0b565b5090565b90565b828054600181600116156101000203166002900490600052602060002090601f016020900481019282601f10611e635780548555611ea0565b82800160010185558215611ea057600052602060002091601f016020900482015b82811115611e9f578254825591600101919060010190611e84565b5b509050611ead9190611e05565b5090565b611f0991905b80821115611f05576000808201600090556001820160009055600282016000611ee09190611f0c565b60038201600090556004820160006101000a81549060ff021916905550600501611eb7565b5090565b90565b50805460018160011615610100020316600290046000825580601f10611f325750611f51565b601f016020900490600052602060002090810190611f509190611e05565b5b5056fea265627a7a72315820b680b31fe5bc5d001d17a33594c5d95a6b502ce7a61b8b463729681640ef92f764736f6c63430005100032",
  "source": "pragma solidity ^0.5.0;\n\n\ncontract Customer {\n\n\n  struct Customer {\n    uint cid;\n    string cName;\n    uint purchaseOrderCount;\n    uint receiveOrderCount;\n    \n  }\n  \n    struct Supplier{\n      uint sid;\n      string sName;\n     \n  }\n\nstruct Item {\n    uint idItem;\n    string itemName;\n    bool isDeleted;\n    uint price;\n    address supplier;\n  }\n  \n  address owner;\n\n  struct Order {\n    uint Oid;\n    uint cid;\n    string itemName;\n    uint quantity;\n    bool status;\n  }\n\nuint public Items ;\n \n  mapping (address => Customer) public customers;\n  //mapping(address => Item[])supplierItems;\n  mapping (address => Order[]) public orders;\n  mapping(address => Supplier)public suppliers;\n  mapping(uint => Item) public items;\n  mapping(address=>bool) public isCustomer;\n  mapping(address => bool) public isSupplier;\n\nevent ItemAdd(uint idItem);\nevent ItemRemove(uint idItem);\nevent OrderRaisedOrUpdated(uint idOrder);\n\n  constructor() public {\n  owner=msg.sender;\n  }\n\nmodifier validCustomer  {\n    require(isCustomer[msg.sender],\"Not a valid customer\");\n    _;\n}\n\nmodifier validSupplier  {\n    require(isSupplier[msg.sender],\"not a valid supplier\");\n    _;\n}\nfunction registerCustomer(uint cid, string memory cName) public{\n    customers[msg.sender]=Customer(cid,cName,0,0);\n    isCustomer[msg.sender]=true;\n}\nfunction registerSupplier(uint cid, string memory cName) public{\n    suppliers[msg.sender]=Supplier(cid,cName);\n    isSupplier[msg.sender]=true;\n}\n\n  function addItem(string memory itemName, uint price) validSupplier public {\n    uint idItem = ++Items;\n    items[idItem] = Item(idItem, itemName,false, price,msg.sender);\n    emit ItemAdd(idItem);\n  }\n\nfunction removeItem(uint itemId) validSupplier public {\n    Item storage item = items[itemId];\n    require(item.supplier==msg.sender,\"not authorized to remove item\");\n    item.isDeleted=true;\n    emit ItemRemove(itemId);\n}\n  \n  function purchaseItem(uint itemId, string memory itemName,uint  customerId,uint quantity) validCustomer public {\n      \n    Order[] storage tempOrders = orders[msg.sender];\n     customers[msg.sender].purchaseOrderCount++;\n    tempOrders.push(Order(customers[msg.sender].purchaseOrderCount, customerId, itemName, quantity,false));\n    orders[msg.sender]=tempOrders;\n    \n   \n    emit OrderRaisedOrUpdated(customers[msg.sender].purchaseOrderCount);\n  }\n\n  function recieveItem(uint oid) validCustomer public {\n     \n      \n      orders[msg.sender][oid].status=true;\n      customers[msg.sender].receiveOrderCount++;\n      emit OrderRaisedOrUpdated(oid);\n  }\n\n \n  function getOrderDetails(uint oid) validCustomer view public returns (string memory, uint, bool){\n   return (orders[msg.sender][oid].itemName, orders[msg.sender][oid].quantity, orders[msg.sender][oid].status);\n  }\n\n  function getNumberOfItemsPurchased() validCustomer view public returns (uint) {\n    return customers[msg.sender].purchaseOrderCount;\n  }\n\n  function getNumberOfItemsReceived() validCustomer view public returns (uint) {\n    return customers[msg.sender].receiveOrderCount;\n  }\n  \n\n \n\n  \n\n}\n",
  "sourcePath": "/Users/z085685/Desktop/Work/Solidtity project/sol2/contracts/Customer.sol",
  "compiler": {
    "name": "solc",
    "version": "0.5.16+commit.9c3226ce.Emscripten.clang"
  },
  "schemaVersion": "3.2.3",
  "updatedAt": "2020-07-30T20:43:47.414Z",
  "networkType": "ethereum",
  "devdoc": {
    "methods": {}
  },
  "userdoc": {
    "methods": {}
  }
}